:1000000000308A008B2A00000A108A100A11820729
:1000100020342034463455344E3443345F344E3427
:100020004F3452344D3441344C3400340A108A1069
:100030000A118207503452342E342034543445345B
:1000400043344C344134203450342F34203442343F
:100050004C344F3400340A108A100A1182072034BD
:10006000463455344E3443345F3442344C344F3488
:10007000513455344534413444344F342034003401
:100080000A108A100A118207503452342E34203458
:100090005434453443344C344134203450342F34B8
:1000A00020344434453453340034263084008313E0
:1000B0000008031969280530F800F701F70B5E28DE
:1000C000F80B5D282E30F700F70B64286728800BAB
:1000D0005B28003420102008831687008312071045
:1000E0008530F700F70B7228A31D7B2883160510B7
:1000F000831205147F288316051083120510231D13
:10010000862883168510831285148A288316851005
:1001100083128510A31C91288316051183120515DF
:1001200095288316051183120511231C9C2883161C
:10013000851183128515A0288316851183128511D8
:100140008530F700F70BA2288316851283128516D7
:10015000C730F700F70BAA28AD2883168512831243
:1001600085120530A6005520003420102008831683
:100170008700831207108530F700F70BBD28A31FF7
:10018000C6288316051083120514CA288316051085
:1001900083120510231FD12883168510831285141E
:1001A000D5288316851083128510A31EDC2883169C
:1001B000051183120515E028831605118312051118
:1001C000231EE7288316851183128515EB288316D5
:1001D0008511831285118530F700F70BED28831602
:1001E000851283128516F428F5288316851283124A
:1001F0008512A31D002983160510831205140429F6
:100200008316051083120510231D0B2983168510F4
:10021000831285140F298316851083128510A31C61
:10022000162983160511831205151A29831605113F
:1002300083120511231C212983168511831285152C
:10024000252983168511831285110D30F700F70BD0
:1002500027298316851283128516C730F700F70BFE
:100260002F29322983168512831285120530A600A4
:10027000552000340330A3006A200F30A60055201B
:100280000330A3006A200F30A60055200330A300DE
:100290006A200F30A60055200230A3006A200F30DC
:1002A000A60055202830A300B5200F30A600552009
:1002B0000C30A300B5200F30A60055200630A30057
:1002C000B5200F30A60055200130A300B5206430C2
:1002D000A60055208A110A129B2A20102008831696
:1002E0008700831207148530F700F70B7529A51FC7
:1002F0007E298316051083120514822983160510A2
:1003000083120510251F89298316851083128514F1
:100310008D298316851083128510A51E94298316B6
:1003200005118312051598298316051183120511ED
:10033000251E9F298316851183128515A3298316EF
:100340008511831285110D30F700F70BA52983164F
:10035000851283128516AC29AD2983168512831266
:100360008512A51DB8298316051083120514BC2912
:100370008316051083120510251DC32983168510C9
:1003800083128514C7298316851083128510A51C36
:10039000CE298316051183120515D229831605115E
:1003A00083120511251CD929831685118312851501
:1003B000DD2983168511831285110D30F700F70BA7
:1003C000DF298316851283128516C730F700F70BD5
:1003D000E729EA2983168512831285120330A600C5
:1003E00055200034A3018316861583128619FA2935
:1003F0000130A3008316061583120619012A023064
:10040000A300831686168312861A082A0330A300D7
:10041000831606168312061A0F2A0430A300230837
:10042000F800003420122008831687008312071674
:10043000A012200883168700831287162013200835
:100440008316870083120717831686138312861775
:100450008030A300B520A30123080420A30AF700DD
:10046000A5006D210D302302031D2C2A0330A400AA
:100470002030A5006D21A40B382AC030A300B52080
:10048000A30123081620A30AF700A5006D21103050
:100490002302031D412AF221F80803194B2A8A116D
:1004A0000A12A02A2012200883168700831207123E
:1004B000A0122008831687008312871220132008B9
:1004C00083168700831207138316061383120617F9
:1004D0008030A300B520A30123082B20A30AF70036
:1004E000A5006D2110302302031D6C2AC030A3002B
:1004F000B520A30123084020A30AF700A5006D2121
:1005000010302302031D7A2AF221F8080319842AE5
:100510008A110A12A22A840183131F3083058316CD
:100520001F149F141F159F1107309C00FF3083126A
:10053000A00022103A29831681138312221C122A4A
:080540002218522A9E2A6300D2
:02400E00733FFE
:00000001FF
;PIC16F876A
