:1000000000308A001C29000024308400831300087B
:10001000031918280530F800F701F70B0D28F80B25
:100020000C282E30F700F70B13281628800B0A280F
:1000300000342012200883168700831207128530AF
:10004000F700F70B2128A31D2A2883160510831219
:1000500005142E288316051083120510231D35283C
:100060008316851083128514392883168510831210
:100070008510A31C402883160511831205154428FA
:100080008316051183120511231C4B288316851135
:10009000831285154F2883168511831285118530AB
:1000A000F700F70B51288316051283120516C73087
:1000B000F700F70B59285C288316051283120512E6
:1000C0000530A40004200034201220088316870085
:1000D000831207128530F700F70B6C28A31F7528D1
:1000E00083160510831205147928831605108312D0
:1000F0000510231F802883168510831285148428F9
:100100008316851083128510A31E8B288316051174
:10011000831205158F288316051183120511231EDE
:10012000962883168511831285159A2883168511C2
:10013000831285118530F700F70B9C288316051272
:1001400083120516A328A42883160512831205120C
:10015000A31DAF288316051083120514B328831638
:10016000051083120510231DBA28831685108312EB
:100170008514BE288316851083128510A31CC528FC
:100180008316051183120515C928831605118312DC
:100190000511231CD0288316851183128515D428B8
:1001A00083168511831285110D30F700F70BD628C1
:1001B0008316051283120516C730F700F70BDE28E9
:1001C000E12883160512831205120530A4000420CD
:1001D00000340330A30019200F30A40004200330A2
:1001E000A30019200F30A40004200330A30019201D
:1001F0000F30A40004200230A30019200F30A40007
:1002000004202830A30064200F30A40004200C3008
:10021000A30064200F30A40004200630A300642053
:100220000F30A40004200130A30064206430A40037
:1002300004208A110A122B29840183131F3083059D
:1002400083161F149F141F159F1107309C00FF3049
:100250008312A000E928831681138312A2012208C9
:10026000623C031C3F29220803178D0083168C1360
:100270000C1483120C080313A100A20A2F292E29A3
:02028000630019
:02400E00733FFE
:00000001FF
;PIC16F876A
