:1000000000308A00B92C00000A108A100A118207F9
:1000100020345534533455344134523449344F34F8
:100020002034493444343A342034303420342034B9
:1000300000340A108A100A118207203453344534E0
:100040004E344834413420343A3400340A108A1093
:100050000A11820720342034463455344E34433458
:100060005F344E344F3452344D3441344C340034C8
:100070000A108A100A118207503452342E34203468
:100080005434453443344C344134203450342F34C8
:10009000203442344C344F3400340A108A100A1190
:1000A00082072034463455344E3443345F3442346E
:1000B0004C344F34513455344534413444344F3446
:1000C000203400340A108A100A1182075034523446
:1000D0002E3420345434453443344C3441342034A9
:1000E00050342F34203444344534533400343230C7
:1000F00084008313000803198B280530F800F701EA
:10010000F70B8028F80B7F282E30F700F70B862896
:100110008928800B7D280034201020088316870052
:10012000831207108530F700F70B9428AF1D9D2828
:100130008316051083120514A12883160510831257
:1001400005102F1DA8288316851083128514AC284E
:100150008316851083128510AF1CB32883160511F2
:1001600083120515B72883160511831205112F1C5C
:10017000BE288316851183128515C2288316851122
:10018000831285118530F700F70BC428831685127A
:1001900083128516C730F700F70BCC28CF288316BB
:1001A0008512831285120530B200772000342010AA
:1001B000200883168700831207108530F700F70B9D
:1001C000DF28B01FE8288316051083120514EC28D9
:1001D0008316051083120510301FF328831685102F
:1001E00083128514F7288316851083128510B01E9C
:1001F000FE288316051183120515022983160511A1
:1002000083120511301E0929831685118312851565
:100210000D2983168511831285118530F700F70BA0
:100220000F2983168512831285161629172983161E
:10023000851283128512B01D2229831605108312A0
:10024000051426298316051083120510301D2D294B
:100250008316851083128514312983168510831225
:100260008510B01C382983160511831205153C2909
:100270008316051183120511301C4329831685113D
:1002800083128515472983168511831285110D3038
:10029000F700F70B49298316851283128516C7309C
:1002A000F700F70B51295429831685128312851202
:1002B0000530B200772000340330AF008C200F30BF
:1002C000B20077200330AF008C200F30B2007720CF
:1002D0000330AF008C200F30B20077200230AF0027
:1002E0008C200F30B20077202830B000D7200F309C
:1002F000B20077200C30B000D7200F30B20077204A
:100300000630B000D7200F30B20077200130B000A7
:10031000D7206430B20077208A110A12D12C201025
:10032000200883168700831207148530F700F70B27
:100330009729B11FA0298316051083120514A4293B
:100340008316051083120510311FAB298316851003
:1003500083128514AF298316851083128510B11E70
:10036000B6298316051183120515BA2983160511BE
:1003700083120511311EC12983168511831285153B
:10038000C52983168511831285110D30F700F70BEF
:10039000C7298316851283128516CE29CF29831685
:1003A000851283128512B11DDA2983160510831276
:1003B0000514DE298316051083120510311DE52969
:1003C0008316851083128514E929831685108312FC
:1003D0008510B11CF0298316051183120515F42927
:1003E0008316051183120511311CFB298316851113
:1003F00083128515FF2983168511831285110D300F
:10040000F700F70B012A8316851283128516C73071
:10041000F700F70B092A0C2A83168512831285121E
:100420000330B200772000343208F801310203189B
:100430001C2A3108F700282AF7010830B300B10D53
:10044000F70D320877020318F700F80DB30B1F2AD7
:10045000003478082F08B1006430B2001422770805
:10046000AF0078083030031D3C2AB01C432AB01975
:10047000432A301A20303F2AB01130123014F807C6
:100480007808B1008F212F08B1000A30B200142281
:100490007708AF0078083030031D542AB019582A65
:1004A000301C582A301A2030F8077808B1008F2104
:1004B0003030AF072F08B1008F210034AF01831611
:1004C000861583128619662A0130AF008316061539
:1004D000831206196D2A0230AF0083168616831226
:1004E000861A742A0330AF00831606168312061A82
:1004F0007B2A0430AF002F08F8000034F701F80120
:10050000310803103218F707F70CF80CB218F70788
:10051000F70CF80C3219F707F70CF80CB219F707BB
:10052000F70CF80C321AF707F70CF80CB21AF707A9
:10053000F70CF80C321BF707F70CF80CB21BF70797
:10054000F70CF80C0034FF3003178D0083168C1362
:100550000C1483120C08803C031DBC2AFF308D0054
:1005600083168C130C1483120C08AC3C031DBB2A9D
:100570000313211403173C2C80300313B000D72041
:10058000AF012F080420AF0AF700B1008F2110300F
:100590002F02031DC12AC030B000D720AF012F08A1
:1005A0001920AF0AF700B1008F2108302F02031D78
:1005B000CF2A0830B0002030B1008F21B00BDB2AE9
:1005C000A901A7012708033C031C312BC8302707CA
:1005D000AF00B000D7202608AF001B30B0002922A2
:1005E000C8302707AF00B000D7200D30B000D720AB
:1005F0005E22F8080319F82A5E227808033C0319E2
:100600001C2B83168615831286190A2B2608083C94
:100610000318A60A831606168312061A122BA608BA
:10062000031DA6032608AF001B30B00029225E225E
:10063000F808031D172BE62A5E22F808031D1C2B61
:1006400001302707F800FA010318FA0A7808293E52
:10065000840083137A18831726088000A601A70A4E
:10066000E22A0130AE00FE3003178D0083168C1392
:100670000C1483120C080313B000B1000630B20052
:100680007E227808B10003178D0003132908031791
:100690008C0083168C130C15831203130B08F700C0
:1006A0008B138316031755308D00AA308D008C14E0
:1006B0008C18582B0C117708831203138B04FE300F
:1006C00003178D0083168C130C1483120C0803136C
:1006D000B000B1000630B2007E2201307807B200CF
:1006E00003178D0003132A0803178C0083168C133D
:1006F0000C15831203130B08F7008B1383160317D3
:1007000055308D00AA308D008C148C18852B0C115F
:100710007708831203138B04FE3003178D008316B2
:100720008C130C1483120C080313B000B1000630B4
:10073000B2007E2202307807B20003178D00031347
:100740002B0803178C0083168C130C1583120313CC
:100750000B08F7008B138316031755308D00AA3052
:100760008D008C148C18B22B0C1177088312031394
:100770008B04FE3003178D0083168C130C14831228
:100780000C080313B000B1000630B2007E22033023
:100790007807B20003178D0003132C0803178C0091
:1007A00083168C130C15831203130B08F7008B139D
:1007B0008316031755308D00AA308D008C148C18C9
:1007C000DF2B0C117708831203138B04FE30031701
:1007D0008D0083168C130C1483120C080313B000C5
:1007E000B1000630B2007E2204307807B200031751
:1007F0008D0003132D0803178C0083168C130C1522
:10080000831203130B08F7008B138316031755305D
:100810008D00AA308D008C148C180C2C0C117708CC
:10082000831203138B04FE3003178D0083168C1381
:100830000C1483120C08013E0313B000FE300317A2
:100840008D000313300803178C0083168C130C15CE
:10085000831203130B08F7008B138316031755300D
:100860008D00AA308D008C148C18342C0C11770854
:10087000831203138B04031703138A110A12D52C56
:10088000201220088316870083120716A012200862
:10089000831687008312871620132008831687008B
:1008A0008312071783168613831286178030B000D1
:1008B000D720AF012F082620AF0AF700B1008F2103
:1008C0000D302F02031D5A2C0330B0002030B10030
:1008D0008F21B00B662CC030B000D720AF012F089D
:1008E0003820AF0AF700B1008F2110302F02031D0E
:1008F0006F2C5E22F8080319792C8A110A12D72C62
:10090000201220088316870083120712A0122008E5
:10091000831687008312871220132008831687000E
:100920008312071383160613831206178030B00054
:10093000D720AF012F084D20AF0AF700B1008F215B
:1009400010302F02031D9A2CC030B000D720AF0109
:100950002F086220AF0AF700B1008F2110302F025C
:10096000031DA82C5E22F8080319B22C8A110A1262
:10097000D92C840183131F30830583161F149F1401
:100980001F159F1107309C00FF308312A00021101B
:100990003030A200A300A400A500A601A701A80171
:1009A0005C29831681138312A32A211C402C211851
:0609B000802CD52C630031
:02400E00733FFE
:00000001FF
;PIC16F876A
