:1000000000308A00132B00000A108A100A118207A0
:1000100020342034463455344E3443345F344E3427
:100020004F3452344D3441344C3400340A108A1069
:100030000A118207503452342E342034543445345B
:1000400043344C344134203450342F34203442343F
:100050004C344F3400340A108A100A1182072034BD
:10006000463455344E3443345F3442344C344F3488
:10007000513455344534413444344F342034003401
:100080000A108A100A118207503452342E34203458
:100090005434453443344C344134203450342F34B8
:1000A000203444344534533400340A108A100A1181
:1000B0008207203455345334553441345234493452
:1000C0004F342034493444343A34203430342034EA
:1000D000203400340A108A100A1182072034533465
:1000E00045344E344834413420343A3400340A1014
:1000F0008A100A11820767346234663472347434A9
:1001000064340034303084008313000803199628C7
:100110000530F800F701F70B8B28F80B8A282E30F2
:10012000F700F70B91289428800B882800342010C2
:10013000200883168700831207108530F700F70B1D
:100140009F28AC1DA8288316051083120514AC281F
:1001500083160510831205102C1DB32883168510F5
:1001600083128514B7288316851083128510AC1C62
:10017000BE288316051183120515C22883160511A2
:10018000831205112C1CC92883168511831285152D
:10019000CD2883168511831285118530F700F70B62
:1001A000CF288316851283128516C730F700F70B08
:1001B000D728DA2883168512831285120530B000FD
:1001C0008220003420102008831687008312071035
:1001D0008530F700F70BEA28AC1FF32883160510CB
:1001E00083120514F72883160510831205102C1F9F
:1001F000FE28831685108312851402298316851024
:1002000083128510AC1E092983160511831205156A
:100210000D2983160511831205112C1E142983162E
:10022000851183128515182983168511831285116E
:100230008530F700F70B1A2983168512831285166D
:10024000212922298316851283128512AC1D2D299E
:1002500083160510831205143129831605108312A5
:1002600005102C1D382983168510831285143C290E
:100270008316851083128510AC1C43298316051143
:1002800083120515472983160511831205112C1CAD
:100290004E298316851183128515522983168511DF
:1002A000831285110D30F700F70B54298316851240
:1002B00083128516C730F700F70B5C295F29831678
:1002C0008512831285120530B0008220003403307D
:1002D000AC0097200F30B00082200330AC00972094
:1002E0000F30B00082200330AC0097200F30B000F8
:1002F00082200230AC0097200F30B00082202830DE
:10030000AC00E2200F30B00082200C30AC00E220C4
:100310000F30B00082200630AC00E2200F30B00079
:1003200082200130AC00E2206430B00082208A11CB
:100330000A12292B20102008831687008312071425
:100340008530F700F70BA229AF1FAB2983160510E4
:1003500083120514AF2983160510831205102F1F71
:10036000B6298316851083128514BA298316851041
:1003700083128510AF1EC12983160511831205153E
:10038000C52983160511831205112F1ECC2983164A
:10039000851183128515D029831685118312851145
:1003A0000D30F700F70BD2298316851283128516BC
:1003B000D929DA298316851283128512AF1DE52902
:1003C0008316051083120514E9298316051083127C
:1003D00005102F1DF0298316851083128514F4292A
:1003E0008316851083128510AF1CFB298316051117
:1003F00083120515FF2983160511831205112F1C81
:10040000062A83168511831285150A2A83168511FB
:10041000831285110D30F700F70B0C2A8316851215
:1004200083128516C730F700F70B142A172A831694
:100430008512831285120330B00082200034FF3011
:1004400003178D0083168C130C1483120C08803C48
:10045000031D352AFF308D0083168C130C14831274
:100460000C08AC3C0319342A762A80300313AC0004
:10047000E220AC012C085520AC0AF700AF009A210D
:1004800010302C02031D3A2AC030AC00E220AC012F
:100490002C086A20AC0AF700AF009A2108302C0221
:1004A000031D482A0830AD002030AF009A21AD0B63
:1004B000542A0830AC00FA30B0008220AC0B5B2A22
:1004C0008030AC00E2201030AC002030AF009A2128
:1004D000AC0B652AC030AC00E2201030AC002030FC
:1004E000AF009A21AC0B6F2AA601031703138A11E0
:1004F0000A12492BAC018316861583128619822AAB
:100500000130AC008316061583120619892A0230C1
:10051000AC00831686168312861A902A0330AC002C
:10052000831606168312061A972A0430AC002C088C
:10053000F800003420122008831687008312071663
:10054000A012200883168700831287162013200824
:100550008316870083120717831686138312861764
:100560008030AC00E220AC012C080420AC0AF7007B
:10057000AF009A210D302C02031DB42A0330AD00C8
:100580002030AF009A21AD0BC02AC030AC00E22071
:10059000AC012C081620AC0AF700AF009A211030ED
:1005A0002C02031DC92A7A22F8080319D32A8A11BA
:1005B0000A124B2B20122008831687008312071281
:1005C000A0122008831687008312871220132008A8
:1005D00083168700831207138316061383120617E8
:1005E0008030AC00E220AC012C082B20AC0AF700D4
:1005F000AF009A2110302C02031DF42AC030AC0049
:10060000E220AC012C084020AC0AF700AF009A2190
:1006100010302C02031D022B7A22F80803190C2B30
:100620008A110A124D2B840183131F308305831610
:100630001F149F141F159F1107309C00FF30831259
:10064000A0003030A100A200A300A400A5012B103F
:1006500067298316811380308312AC00E2200330B7
:10066000AC002030AF009A21AC0B312BAD012D082E
:100670007720AD0AF700AF009A2106302D02031D46
:10068000372B0630AE002030AF009A21AE0B432B43
:0E0690001F2A2B189A2A2B1CDA2A492B6300EA
:02400E00733FFE
:00000001FF
;PIC16F876A
